:100000000C942A000C943C000C943C000C943C0092
:100010000C943C000C943C000C943C000C943C0070
:100020000C943C000C943C000C943C000C943C0060
:100030000C943C000C943C000C943C000C943C0050
:100040000C94B7070C943C000C943C000C943C00BE
:100050000C943C0011241FBECFE5D8E0DEBFCDBF1D
:1000600010E0A0E6B0E001C01D92A436B107E1F7B0
:100070000E94CC070C94E9070C940000DF93CF9307
:10008000CDB7DEB7AFE5B0E0EFE5F0E080818068A6
:100090008C93CF91DF910895DF93CF93CDB7DEB7E7
:1000A000AFE5B0E0EFE5F0E080818F778C93CF9102
:1000B000DF910895DF93CF9300D00F92CDB7DEB7D5
:1000C00089838981282F30E03B832A838A819B8121
:1000D0008130910589F02A813B8122303105A1F0E0
:1000E0008A819B810097B9F4ABE5B0E0EBE5F0E0E5
:1000F000808180648C930FC0ABE5B0E0EBE5F0E06D
:10010000808180688C9307C0ABE5B0E0EBE5F0E060
:10011000808180628C930F900F900F90CF91DF9130
:100120000895DF93CF9300D00F92CDB7DEB78983C8
:100130008981282F30E03B832A838A819B8181300B
:10014000910589F02A813B8122303105A1F08A8115
:100150009B810097B9F4ABE5B0E0EBE5F0E080817E
:100160008F7B8C930FC0ABE5B0E0EBE5F0E08081D6
:100170008F778C9307C0ABE5B0E0EBE5F0E08081D2
:100180008F7D8C930F900F900F90CF91DF910895FA
:10019000DF93CF93CDB7DEB72A970FB6F894DEBFC3
:1001A0000FBECDBF89836A838981282F30E03A87CB
:1001B000298789859A858130910509F466C029854A
:1001C0003A852230310509F4BBC089859A850097AC
:1001D00009F0D5C08A81282F30E038872F838F819E
:1001E00098858130910521F12F81388522303105A4
:1001F0002CF48F819885009761F0C1C02F813885DC
:100200002230310521F18F8198858330910571F17C
:10021000B6C0A5E5B0E0E5E5F0E080818E7F8C9387
:10022000A5E5B0E0E5E5F0E080818D7F8C93A7C087
:10023000A5E5B0E0E5E5F0E0808181608C93A5E57F
:10024000B0E0E5E5F0E080818D7F8C9398C0A5E576
:10025000B0E0E5E5F0E080818E7F8C93A5E5B0E02D
:10026000E5E5F0E0808182608C9389C0A5E5B0E08F
:10027000E5E5F0E0808181608C93A5E5B0E0E5E5FF
:10028000F0E0808182608C937AC08A81282F30E0F0
:100290003E832D838D819E818130910521F12D81B9
:1002A0003E81223031052CF48D819E81009761F0D2
:1002B00066C02D813E812230310521F18D819E81E4
:1002C0008330910571F15BC0A5E5B0E0E5E5F0E0B4
:1002D00080818B7F8C93A5E5B0E0E5E5F0E080813F
:1002E000877F8C934CC0A5E5B0E0E5E5F0E0808128
:1002F00084608C93A5E5B0E0E5E5F0E08081877F40
:100300008C933DC0A5E5B0E0E5E5F0E080818B7F12
:100310008C93A5E5B0E0E5E5F0E0808188608C9302
:100320002EC0A5E5B0E0E5E5F0E0808184608C9327
:10033000A5E5B0E0E5E5F0E0808188608C931FC022
:100340008A81282F30E03C832B838B819C818230F3
:10035000910531F02B813C812330310549F00FC0EC
:10036000A4E5B0E0E4E5F0E080818F7B8C9307C0EA
:10037000A4E5B0E0E4E5F0E0808180648C932A9607
:100380000FB6F894DEBF0FBECDBFCF91DF910895B9
:10039000DF93CF9300D000D0CDB7DEB78A838A81B8
:1003A000282F30E03C832B838B819C818130910509
:1003B00099F02B813C8122303105B1F08B819C81F9
:1003C0000097D1F4EAE5F0E08081829586958695E4
:1003D00083708170898310C0EAE5F0E08081881F16
:1003E0008827881F898308C0EAE5F0E0808182952C
:1003F000869587708170898389810F900F900F9007
:100400000F90CF91DF910895DF93CF9300D00F929B
:10041000CDB7DEB789838981282F30E03B832A83DB
:100420008A819B818130910589F02A813B8122302C
:100430003105A1F08A819B810097B9F4AAE5B0E06B
:10044000EAE5F0E0808180648C930FC0AAE5B0E01B
:10045000EAE5F0E0808180688C9307C0AAE5B0E00F
:10046000EAE5F0E0808180628C930F900F900F900E
:10047000CF91DF910895DF93CF9300D00F92CDB746
:10048000DEB789837B836A838981882F90E0009718
:1004900031F48A819B8190936100809360000F907A
:1004A0000F900F90CF91DF910895DF93CF9300D0FD
:1004B00000D0CDB7DEB79A83898380916000909198
:1004C0006100009729F0E0916000F09161000995CA
:1004D0000F900F900F900F90CF91DF910895DF93C1
:1004E000CF9300D000D0CDB7DEB789836A838981EE
:1004F000282F30E03C832B838B819C8181309105B8
:10050000D1F02B813C81223031052CF48B819C81F0
:10051000009761F01EC02B813C812230310581F0B3
:100520008B819C818330910581F013C0EAE3F0E078
:100530008A8180830EC0E7E3F0E08A81808309C06E
:10054000E4E3F0E08A81808304C0E1E3F0E08A81A3
:1005500080830F900F900F900F90CF91DF910895AF
:10056000DF93CF93CDB7DEB72D970FB6F894DEBFEC
:100570000FBECDBF89836A834B838981282F30E0EA
:100580003D872C878C859D858130910509F47BC042
:100590002C853D85223031052CF48C859D85009776
:1005A00071F09CC12C853D852230310509F4CFC006
:1005B0008C859D858330910509F42DC18FC18B8178
:1005C000282F30E03B872A878A859B8581309105DB
:1005D000F9F02A853B852230310571F18A859B85AA
:1005E000009709F07BC1AAE3B0E0EAE3F0E0808184
:1005F000482F8A81282F30E081E090E0022E02C04F
:10060000880F991F0A94E2F7809584238C9366C122
:10061000AAE3B0E0EAE3F0E08081482F8A81282F46
:1006200030E081E090E0022E02C0880F991F0A940A
:10063000E2F7842B8C9352C1AAE3B0E0EAE3F0E046
:100640008081482F8A81282F30E081E090E002C02D
:10065000880F991F2A95E2F7809584238C93ABE34A
:10066000B0E0EBE3F0E08081482F8A81282F30E072
:1006700081E090E0022E02C0880F991F0A94E2F7F1
:10068000842B8C932BC18B81282F30E039872887CE
:100690008885998581309105F9F028853985223042
:1006A000310571F188859985009709F017C1A7E395
:1006B000B0E0E7E3F0E08081482F8A81282F30E026
:1006C00081E090E0022E02C0880F991F0A94E2F7A1
:1006D000809584238C9302C1A7E3B0E0E7E3F0E0C8
:1006E0008081482F8A81282F30E081E090E0022E1F
:1006F00002C0880F991F0A94E2F7842B8C93EEC0F6
:10070000A7E3B0E0E7E3F0E08081482F8A81282F5B
:1007100030E081E090E002C0880F991F2A95E2F74F
:10072000809584238C93A8E3B0E0E8E3F0E0808137
:10073000482F8A81282F30E081E090E0022E02C00D
:10074000880F991F0A94E2F7842B8C93C7C08B8182
:10075000282F30E03F832E838E819F818130910549
:10076000F9F02E813F812230310571F18E819F8118
:10077000009709F0B3C0A4E3B0E0E4E3F0E08081C7
:10078000482F8A81282F30E081E090E0022E02C0BD
:10079000880F991F0A94E2F7809584238C939EC05A
:1007A000A4E3B0E0E4E3F0E08081482F8A81282FC1
:1007B00030E081E090E0022E02C0880F991F0A9479
:1007C000E2F7842B8C938AC0A4E3B0E0E4E3F0E08A
:1007D0008081482F8A81282F30E081E090E002C09C
:1007E000880F991F2A95E2F7809584238C93A5E3BF
:1007F000B0E0E5E3F0E08081482F8A81282F30E0E7
:1008000081E090E0022E02C0880F991F0A94E2F75F
:10081000842B8C9363C08B81282F30E03D832C8305
:100820008C819D8181309105F9F02C813D812230B0
:10083000310571F18C819D81009709F04FC0A1E3D2
:10084000B0E0E1E3F0E08081482F8A81282F30E09A
:1008500081E090E0022E02C0880F991F0A94E2F70F
:10086000809584238C933AC0A1E3B0E0E1E3F0E00B
:100870008081482F8A81282F30E081E090E0022E8D
:1008800002C0880F991F0A94E2F7842B8C9326C02C
:10089000A1E3B0E0E1E3F0E08081482F8A81282FD6
:1008A00030E081E090E002C0880F991F2A95E2F7BE
:1008B000809584238C93A2E3B0E0E2E3F0E08081B2
:1008C000482F8A81282F30E081E090E0022E02C07C
:1008D000880F991F0A94E2F7842B8C932D960FB6FC
:1008E000F894DEBF0FBECDBFCF91DF910895DF93A7
:1008F000CF9300D000D0CDB7DEB789836A838981DA
:10090000282F30E03C832B838B819C8181309105A3
:10091000D1F02B813C81223031052CF48B819C81DC
:10092000009761F01EC02B813C812230310581F09F
:100930008B819C818330910581F013C0EBE3F0E063
:100940008A8180830EC0E8E3F0E08A81808309C059
:10095000E5E3F0E08A81808304C0E2E3F0E08A818D
:1009600080830F900F900F900F90CF91DF9108959B
:10097000DF93CF93CDB7DEB72D970FB6F894DEBFD8
:100980000FBECDBF89836A834B838981282F30E0D6
:100990003D872C878C859D858130910509F44FC05A
:1009A0002C853D85223031052CF48C859D85009762
:1009B00071F0ECC02C853D852230310509F477C0FB
:1009C0008C859D858330910509F4A9C0DFC08B819A
:1009D000282F30E03B872A878A859B85009731F056
:1009E0002A853B8521303105B1F0D0C0ABE3B0E0C2
:1009F000EBE3F0E08081482F8A81282F30E081E00E
:100A000090E0022E02C0880F991F0A94E2F78095A9
:100A100084238C93BBC0ABE3B0E0EBE3F0E08081D8
:100A2000482F8A81282F30E081E090E0022E02C01A
:100A3000880F991F0A94E2F7842B8C93A7C08B81AF
:100A4000282F30E03987288788859985009731F0ED
:100A50002885398521303105B1F098C0A8E3B0E090
:100A6000E8E3F0E08081482F8A81282F30E081E0A0
:100A700090E0022E02C0880F991F0A94E2F7809539
:100A800084238C9383C0A8E3B0E0E8E3F0E08081A6
:100A9000482F8A81282F30E081E090E0022E02C0AA
:100AA000880F991F0A94E2F7842B8C936FC08B8177
:100AB000282F30E03F832E838E819F81009731F075
:100AC0002E813F8121303105B1F060C0A5E3B0E057
:100AD000E5E3F0E08081482F8A81282F30E081E033
:100AE00090E0022E02C0880F991F0A94E2F78095C9
:100AF00084238C934BC0A5E3B0E0E5E3F0E0808174
:100B0000482F8A81282F30E081E090E0022E02C039
:100B1000880F991F0A94E2F7842B8C9337C08B813E
:100B2000282F30E03D832C838C819D81009731F00C
:100B30002C813D8121303105B1F028C0A2E3B0E025
:100B4000E2E3F0E08081482F8A81282F30E081E0C5
:100B500090E0022E02C0880F991F0A94E2F7809558
:100B600084238C9313C0A2E3B0E0E2E3F0E0808141
:100B7000482F8A81282F30E081E090E0022E02C0C9
:100B8000880F991F0A94E2F7842B8C932D960FB649
:100B9000F894DEBF0FBECDBFCF91DF910895DF93F4
:100BA000CF9300D000D00F92CDB7DEB78A836B838E
:100BB0008A81282F30E03D832C834C815D81413038
:100BC000510541F18C819D818230910534F42C8155
:100BD0003D812115310561F052C04C815D8142306B
:100BE000510551F18C819D8183309105B9F147C048
:100BF000E9E3F0E08081282F30E08B81882F90E0BE
:100C0000A90102C0559547958A95E2F7CA018170FE
:100C1000898335C0E6E3F0E08081282F30E08B81C6
:100C2000882F90E0A90102C0559547958A95E2F773
:100C3000CA018170898323C0E3E3F0E08081282F1B
:100C400030E08B81882F90E0A90102C0559547952F
:100C50008A95E2F7CA018170898311C0E0E3F0E070
:100C60008081282F30E08B81882F90E0A90102C07D
:100C7000559547958A95E2F7CA01817089838981E4
:100C80000F900F900F900F900F90CF91DF910895DC
:100C9000DF93CF9300D000D0CDB7DEB789836A83CE
:100CA0008981282F30E03C832B838B819C8181308C
:100CB000910549F12B813C81223031052CF48B8147
:100CC0009C81009761F05AC02B813C812230310514
:100CD00071F18B819C8183309105E9F14FC0ABE3C9
:100CE000B0E0EBE3F0E08081482F8A81282F30E0EC
:100CF00081E090E0022E02C0880F991F0A94E2F76B
:100D000084278C933BC0A8E3B0E0E8E3F0E0808167
:100D1000482F8A81282F30E081E090E0022E02C027
:100D2000880F991F0A94E2F784278C9327C0A5E3C4
:100D3000B0E0E5E3F0E08081482F8A81282F30E0A1
:100D400081E090E0022E02C0880F991F0A94E2F71A
:100D500084278C9313C0A2E3B0E0E2E3F0E080814B
:100D6000482F8A81282F30E081E090E0022E02C0D7
:100D7000880F991F0A94E2F784278C930F900F90A5
:100D80000F900F90CF91DF910895DF93CF93CDB760
:100D9000DEB7A7E2B0E0E7E2F0E0808180648C9308
:100DA000A7E2B0E0E7E2F0E080818F778C93A7E2E2
:100DB000B0E0E7E2F0E080818F7D8C93A6E2B0E0C6
:100DC000E6E2F0E080818F7D8C93A6E2B0E0E6E27F
:100DD000F0E0808188608C93A6E2B0E0E6E2F0E08B
:100DE0008081887F8C93A6E2B0E0E6E2F0E080812B
:100DF00087608C93A6E2B0E0E6E2F0E08081806854
:100E00008C93CF91DF910895DF93CF9300D0CDB72E
:100E1000DEB78A83A7E2B0E0E7E2F0E08081807E7F
:100E20008C93A7E2B0E0E7E2F0E090818A81892B21
:100E30008C93A6E2B0E0E6E2F0E0808180648C93DF
:100E4000E6E2F0E0808182958F70882F90E08170DB
:100E500090700097A9F3A6E2B0E0E6E2F0E08081AE
:100E600080618C93E4E2F0E08081898389810F9036
:100E70000F90CF91DF910895DF93CF9300D00F9221
:100E8000CDB7DEB78B83A7E2B0E0E7E2F0E0808188
:100E9000807E8C93A7E2B0E0E7E2F0E090818B8166
:100EA000892B8C93A6E2B0E0E6E2F0E080818064DA
:100EB0008C93E6E2F0E0808182958F70882F90E03D
:100EC000817090700097A9F3A6E2B0E0E6E2F0E04E
:100ED000808180618C93E4E2F0E0808191819A834B
:100EE000898389819A810F900F900F90CF91DF9124
:100EF0000895DF93CF9300D00F92CDB7DEB78B83E9
:100F00008FEF9FEF9A838983809163008823C9F4D0
:100F1000A7E2B0E0E7E2F0E08081807E8C93A7E278
:100F2000B0E0E7E2F0E090818B81892B8C93A6E220
:100F3000B0E0E6E2F0E0808180648C9381E0809311
:100F4000630080916200813051F4E4E2F0E080813E
:100F500091819A8389831092620010926300898143
:100F60009A810F900F900F90CF91DF9108951F926B
:100F70000F920FB60F9211248F93DF93CF93CDB7BB
:100F8000DEB781E080936200CF91DF918F910F9067
:100F90000FBE0F901F901895DF93CF9300D0CDB761
:100FA000DEB778940E94C50681E06FEF0E946F0261
:100FB00080E00E9479079A83898389819A812FEF43
:100FC0008F3F9207A9F3998181E0692F0E947704EE
:060FD000EFCFF894FFCF03
:00000001FF
