:100000000C942A000C94F8000C943C000C943C00D6
:100010000C943C000C943C000C943C000C943C0070
:100020000C943C000C943C000C943C000C943C0060
:100030000C943C000C943C000C943C000C943C0050
:100040000C943C000C943C000C943C000C943C0040
:100050000C943C0011241FBECFE5D8E0DEBFCDBF1D
:1000600010E0A0E6B0E001C01D92A336B107E1F7B1
:100070000E94CF020C94EE020C9400008FB78068AF
:100080008FBF08958FB78F778FBF0895813069F044
:10009000813020F48BB780648BBF0895823009F0E3
:1000A00008958BB780628BBF08958BB780688BBF34
:1000B0000895813069F0813020F48BB78F7B8BBF3E
:1000C0000895823009F008958BB78F7D8BBF089516
:1000D0008BB78F778BBF08958130C1F0813058F492
:1000E000613051F16130D0F585B78E7F85BF85B71E
:1000F0008D7F85BF0895823009F00895623089F0C0
:100100006330D9F784B7806484BF0895613069F0A3
:100110006130C8F485B78B7F85BF85B7877F85BF82
:10012000089584B78F7B84BF089585B7846085BFA9
:1001300085B7877F85BF089585B7816085BF85B7FF
:100140008D7F85BF08956230D9F06330B1F685B7F1
:10015000846085BF85B7886085BF0895623049F0A7
:10016000633059F685B7816085BF85B7826085BFEA
:10017000089585B78E7F85BF85B7826085BF089556
:1001800085B78B7F85BF85B7886085BF089581302F
:1001900081F0813030F48AB782958695869581709A
:1001A0000895823009F008958AB782958695817006
:1001B00008958AB7881F8827881F0895813069F0BD
:1001C000813020F48AB780648ABF0895823009F0B4
:1001D00008958AB780628ABF08958AB780688ABF07
:1001E0000895882321F4709361006093600008955E
:1001F0001F920F920FB60F9211242F933F934F939C
:100200005F936F937F938F939F93AF93BF93EF937E
:10021000FF93E0916000F0916100309709F009953B
:10022000FF91EF91BF91AF919F918F917F916F91CE
:100230005F914F913F912F910F900FBE0F901F90A4
:100240001895813059F1813028F08230C1F1833026
:1002500099F00895413009F464C0413008F092C02B
:100260002AB381E090E002C0880F991F6A95E2F7F7
:10027000809582238ABB0895413009F447C04130FC
:1002800008F06DC021B381E090E002C0880F991F93
:100290006A95E2F78095822381BB0895413059F138
:1002A000413008F049C027B381E090E002C0880FD8
:1002B000991F6A95E2F78095822387BB08954130A4
:1002C00079F0413008F071C024B381E090E002C0C1
:1002D000880F991F6A95E2F78095822384BB089561
:1002E00024B381E090E002C0880F991F6A95E2F77D
:1002F000282B24BB089527B381E090E002C0880F2B
:10030000991F6A95E2F7282B27BB089521B381E056
:1003100090E002C0880F991F6A95E2F7282B21BB55
:1003200008952AB381E090E002C0880F991F6A9572
:10033000E2F7282B2ABB0895423009F08ACF37B361
:1003400081E090E002C0880F991F6A95E2F7282F9C
:100350002095232327BB28B3822B88BB08954230E6
:1003600009F077CF31B381E090E002C0880F991F88
:100370006A95E2F7282F2095232321BB22B3822BF5
:1003800082BB0895423009F064CF3AB381E090E037
:1003900002C0880F991F6A95E2F7282F2095232322
:1003A0002ABB2BB3822B8BBB0895423009F051CF6F
:1003B00034B381E090E002C0880F991F6A95E2F79C
:1003C000282F2095232324BB25B3822B85BB08959A
:1003D000813029F1813028F0823079F1833081F049
:1003E0000895442309F061C02BB381E090E002C07E
:1003F000880F991F6A95E2F7809582238BBB089539
:10040000442309F044C022B381E090E002C0880F89
:10041000991F6A95E2F78095822382BB0895442351
:1004200041F528B381E090E002C0880F991F6A95DA
:10043000E2F78095822388BB0895442361F425B3B5
:1004400081E090E002C0880F991F6A95E2F78095DD
:10045000822385BB0895413009F0C2CF25B381E0E6
:1004600090E002C0880F991F6A95E2F7282B25BB00
:100470000895413009F0B4CF28B381E090E002C084
:10048000880F991F6A95E2F7282B28BB0895413001
:1004900009F0A6CF22B381E090E002C0880F991F37
:1004A0006A95E2F7282B22BB0895413009F098CFD6
:1004B0002BB381E090E002C0880F991F6A95E2F7A4
:1004C000282B2BBB08958130C9F0813028F0823071
:1004D000F1F0833051F0089589B390E002C0959512
:1004E00087956A95E2F78170089580B390E002C025
:1004F000959587956A95E2F78170089586B390E0A7
:1005000002C0959587956A95E2F78170089583B347
:1005100090E002C0959587956A95E2F781700895FD
:100520008130E9F0813028F0823021F1833061F0B0
:1005300008952BB381E090E002C0880F991F6A955F
:10054000E2F728272BBB089522B381E090E002C098
:10055000880F991F6A95E2F7282722BB089528B3D0
:1005600081E090E002C0880F991F6A95E2F7282782
:1005700028BB089525B381E090E002C0880F991F41
:100580006A95E2F7282725BB089580E060E00E9485
:100590009002809162008F5F8093620008950E94B4
:1005A0003E0083E062E042E00E94210180E062E0E0
:1005B0000E946C0080E065EC72E00E94F10080E037
:1005C0000E94460080E060E041E00E9421018091AD
:1005D00062008530E1F70E944200F9CFF894FFCF26
:00000001FF
