:100000000C942A000C9434000C9434000C943400AA
:100010000C9434000C9434000C9434000C94340090
:100020000C9434000C9434000C9434000C94340080
:100030000C9434000C9434000C9434000C94340070
:100040000C9434000C9434000C9434000C94340060
:100050000C94340011241FBECFE5D8E0DEBFCDBF25
:100060000E940A040C945A040C940000DF93CF936E
:10007000CDB7DEB72D970FB6F894DEBF0FBECDBF5C
:1000800089836A834B838981282F30E03D872C87C1
:100090008C859D858130910509F47BC02C853D853B
:1000A000223031052CF48C859D85009771F09CC120
:1000B0002C853D852230310509F4CFC08C859D8586
:1000C0008330910509F42DC18FC18B81282F30E039
:1000D0003B872A878A859B8581309105F9F02A859F
:1000E0003B852230310571F18A859B85009709F0A7
:1000F0007BC1AAE3B0E0EAE3F0E08081482F8A8187
:10010000282F30E081E090E0022E02C0880F991F76
:100110000A94E2F7809584238C9366C1AAE3B0E049
:10012000EAE3F0E08081482F8A81282F30E081E0E7
:1001300090E0022E02C0880F991F0A94E2F7842BE8
:100140008C9352C1AAE3B0E0EAE3F0E08081482F4B
:100150008A81282F30E081E090E002C0880F991F4B
:100160002A95E2F7809584238C93ABE3B0E0EBE330
:10017000F0E08081482F8A81282F30E081E090E0F4
:10018000022E02C0880F991F0A94E2F7842B8C93E9
:100190002BC18B81282F30E0398728878885998566
:1001A00081309105F9F0288539852230310571F1CA
:1001B00088859985009709F017C1A7E3B0E0E7E3C8
:1001C000F0E08081482F8A81282F30E081E090E0A4
:1001D000022E02C0880F991F0A94E2F780958423AB
:1001E0008C9302C1A7E3B0E0E7E3F0E08081482F01
:1001F0008A81282F30E081E090E0022E02C0880F33
:10020000991F0A94E2F7842B8C93EEC0A7E3B0E029
:10021000E7E3F0E08081482F8A81282F30E081E0F9
:1002200090E002C0880F991F2A95E2F780958423F9
:100230008C93A8E3B0E0E8E3F0E08081482F8A8166
:10024000282F30E081E090E0022E02C0880F991F35
:100250000A94E2F7842B8C93C7C08B81282F30E05F
:100260003F832E838E819F8181309105F9F02E810D
:100270003F812230310571F18E819F81009709F015
:10028000B3C0A4E3B0E0E4E3F0E08081482F8A81CA
:10029000282F30E081E090E0022E02C0880F991FE5
:1002A0000A94E2F7809584238C939EC0A4E3B0E087
:1002B000E4E3F0E08081482F8A81282F30E081E05C
:1002C00090E0022E02C0880F991F0A94E2F7842B57
:1002D0008C938AC0A4E3B0E0E4E3F0E08081482F8F
:1002E0008A81282F30E081E090E002C0880F991FBA
:1002F0002A95E2F7809584238C93A5E3B0E0E5E3AB
:10030000F0E08081482F8A81282F30E081E090E062
:10031000022E02C0880F991F0A94E2F7842B8C9357
:1003200063C08B81282F30E03D832C838C819D819D
:1003300081309105F9F02C813D812230310571F138
:100340008C819D81009709F04FC0A1E3B0E0E1E30B
:10035000F0E08081482F8A81282F30E081E090E012
:10036000022E02C0880F991F0A94E2F78095842319
:100370008C933AC0A1E3B0E0E1E3F0E08081482F44
:100380008A81282F30E081E090E0022E02C0880FA1
:10039000991F0A94E2F7842B8C9326C0A1E3B0E066
:1003A000E1E3F0E08081482F8A81282F30E081E06E
:1003B00090E002C0880F991F2A95E2F78095842368
:1003C0008C93A2E3B0E0E2E3F0E08081482F8A81E1
:1003D000282F30E081E090E0022E02C0880F991FA4
:1003E0000A94E2F7842B8C932D960FB6F894DEBF17
:1003F0000FBECDBFCF91DF910895DF93CF93CDB7DF
:10040000DEB72D970FB6F894DEBF0FBECDBF898340
:100410006A834B838981282F30E03D872C878C8528
:100420009D858130910509F44FC02C853D85223092
:1004300031052CF48C859D85009771F0ECC02C85DE
:100440003D852230310509F477C08C859D85833048
:10045000910509F4A9C0DFC08B81282F30E03B87CC
:100460002A878A859B85009731F02A853B85213034
:100470003105B1F0D0C0ABE3B0E0EBE3F0E0808158
:10048000482F8A81282F30E081E090E0022E02C0C0
:10049000880F991F0A94E2F7809584238C93BBC040
:1004A000ABE3B0E0EBE3F0E08081482F8A81282FB6
:1004B00030E081E090E0022E02C0880F991F0A947C
:1004C000E2F7842B8C93A7C08B81282F30E03987EB
:1004D000288788859985009731F0288539852130CE
:1004E0003105B1F098C0A8E3B0E0E8E3F0E0808126
:1004F000482F8A81282F30E081E090E0022E02C050
:10050000880F991F0A94E2F7809584238C9383C007
:10051000A8E3B0E0E8E3F0E08081482F8A81282F4B
:1005200030E081E090E0022E02C0880F991F0A940B
:10053000E2F7842B8C936FC08B81282F30E03F83B0
:100540002E838E819F81009731F02E813F81213053
:100550003105B1F060C0A5E3B0E0E5E3F0E08081F3
:10056000482F8A81282F30E081E090E0022E02C0DF
:10057000880F991F0A94E2F7809584238C934BC0CF
:10058000A5E3B0E0E5E3F0E08081482F8A81282FE1
:1005900030E081E090E0022E02C0880F991F0A949B
:1005A000E2F7842B8C9337C08B81282F30E03D837A
:1005B0002C838C819D81009731F02C813D812130ED
:1005C0003105B1F028C0A2E3B0E0E2E3F0E08081C1
:1005D000482F8A81282F30E081E090E0022E02C06F
:1005E000880F991F0A94E2F7809584238C9313C097
:1005F000A2E3B0E0E2E3F0E08081482F8A81282F77
:1006000030E081E090E0022E02C0880F991F0A942A
:10061000E2F7842B8C932D960FB6F894DEBF0FBEB5
:10062000CDBFCF91DF910895DF93CF9300D000D05D
:100630000F92CDB7DEB78A836B838A81282F30E093
:100640003D832C834C815D814130510541F18C818A
:100650009D818230910534F42C813D812115310535
:1006600061F052C04C815D814230510551F18C8165
:100670009D8183309105B9F147C0E9E3F0E08081C5
:10068000282F30E08B81882F90E0A90102C055957A
:1006900047958A95E2F7CA018170898335C0E6E300
:1006A000F0E08081282F30E08B81882F90E0A90135
:1006B00002C0559547958A95E2F7CA0181708983F2
:1006C00023C0E3E3F0E08081282F30E08B81882F86
:1006D00090E0A90102C0559547958A95E2F7CA01B5
:1006E0008170898311C0E0E3F0E08081282F30E041
:1006F0008B81882F90E0A90102C0559547958A9576
:10070000E2F7CA018170898389810F900F900F9061
:100710000F900F90CF91DF910895DF93CF9300D08A
:1007200000D0CDB7DEB789836A838981282F30E076
:100730003C832B838B819C818130910549F12B81F6
:100740003C81223031052CF48B819C81009761F033
:100750005AC02B813C812230310571F18B819C8103
:1007600083309105E9F14FC0ABE3B0E0EBE3F0E09B
:100770008081482F8A81282F30E081E090E0022E8E
:1007800002C0880F991F0A94E2F784278C933BC01C
:10079000A8E3B0E0E8E3F0E08081482F8A81282FC9
:1007A00030E081E090E0022E02C0880F991F0A9489
:1007B000E2F784278C9327C0A5E3B0E0E5E3F0E0FF
:1007C0008081482F8A81282F30E081E090E0022E3E
:1007D00002C0880F991F0A94E2F784278C9313C0F4
:1007E000A2E3B0E0E2E3F0E08081482F8A81282F85
:1007F00030E081E090E0022E02C0880F991F0A9439
:10080000E2F784278C930F900F900F900F90CF9169
:10081000DF910895DF93CF930F92CDB7DEB71982A2
:1008200080E060E041E00E94360081E064E041E069
:100830000E94360082E065E041E00E94360083E0DD
:1008400067E041E00E94360082E060E042E00E9402
:10085000360080E060E041E00E94FD0181E064E05C
:1008600041E00E94FD0182E065E041E00E94FD015F
:1008700083E067E041E00E94FD0182E060E00E94C9
:1008800014038823D1F782E060E00E9414038823D8
:10089000D1F380E060E00E948D0381E064E00E947B
:1008A0008D0382E065E00E948D0383E067E00E9493
:0808B0008D03E3CFF894FFCFA4
:00000001FF
