:100000000C942A000C9491050C94C4050C94F705EB
:100010000C943C000C943C000C943C000C947D022D
:100020000C94B0020C944A020C947B030C9435039C
:100030000C943C000C943C000C943C000C943C0050
:100040000C943C000C943C000C943C000C943C0040
:100050000C943C0011241FBECFE5D8E0DEBFCDBF1D
:1000600010E0A0E6B0E001C01D92A737B107E1F7AC
:100070000E943E000C94F2090C940000DF93CF9391
:10008000CDB7DEB78FE19EE40E94AE0187E893E131
:100090000E948A0187E893E10E949C0183E064E06A
:1000A00041E00E942A0683E065E041E00E942A06C2
:1000B0008EE062E040E820E30E947500FFCFDF930E
:1000C000CF93CDB7DEB7809160008F5F80936000E3
:1000D00080916000843131F480E060E00E94AC08DF
:1000E00010926000CF91DF910895DF93CF9300D0FD
:1000F00000D000D0CDB7DEB789836A834B832C83D1
:100100008981282F30E03E832D838D819E818B3025
:10011000910509F456C02D813E812C30310554F4EF
:100120008D819E81009799F02D813E81243031058B
:1001300059F19DC08D819E818E30910509F45EC07C
:100140002D813E812F30310509F475C090C0AFE498
:10015000B0E0EFE4F0E080818E7F8C93AFE4B0E01C
:10016000EFE4F0E080818D7F8C93AEE4B0E0EEE4CC
:10017000F0E08081877F8C93AEE4B0E0EEE4F0E0C5
:1001800080818F7E8C9373C0AFE4B0E0EFE4F0E049
:1001900080818E7F8C93AFE4B0E0EFE4F0E080816B
:1001A0008D7F8C93AEE4B0E0EEE4F0E08081886077
:1001B0008C93AEE4B0E0EEE4F0E080818F7E8C932F
:1001C00056C0AFE4B0E0EFE4F0E0808181608C9352
:1001D000AFE4B0E0EFE4F0E0808182608C93AEE4C5
:1001E000B0E0EEE4F0E08081877F8C93AEE4B0E095
:1001F000EEE4F0E0808180618C9339C0AFE4B0E040
:10020000EFE4F0E080818E7F8C93AFE4B0E0EFE428
:10021000F0E0808182608C93AEE4B0E0EEE4F0E048
:10022000808188608C93AEE4B0E0EEE4F0E0808101
:1002300080618C931CC0AFE4B0E0EFE4F0E080811B
:1002400081608C93AFE4B0E0EFE4F0E08081826005
:100250008C93AEE4B0E0EEE4F0E0808188608C93B3
:10026000AEE4B0E0EEE4F0E0808180618C93AFE436
:10027000B0E0EFE4F0E080818F738C93AFE4B0E006
:10028000EFE4F0E090818B81892B8C93AFE4B0E0B8
:10029000EFE4F0E080818F7C8C93AFE4B0E0EFE49A
:1002A000F0E090818C81892B8C93AEE4B0E0EEE499
:1002B000F0E08081887F8C93AEE4B0E0EEE4F0E083
:1002C00090818A81892B8C9326960FB6F894DEBF95
:1002D0000FBECDBFCF91DF910895DF93CF9300D0B4
:1002E000CDB7DEB79A838983ECE4F0E089819A8107
:1002F000918380830F900F90CF91DF910895DF93CA
:10030000CF93CDB7DEB7ECE4F0E080819181CF915F
:10031000DF910895DF93CF9300D0CDB7DEB79A83F6
:100320008983EAE4F0E089819A81918380830F9048
:100330000F90CF91DF910895DF93CF9300D0CDB789
:10034000DEB79A838983E8E4F0E089819A8191831A
:1003500080830F900F90CF91DF910895DF93CF931B
:1003600000D0CDB7DEB79A838983E6E4F0E08981D7
:100370009A81918380830F900F90CF91DF910895A0
:10038000DF93CF93CDB7DEB7A9E5B0E0E9E5F0E0C4
:10039000808184608C93CF91DF910895DF93CF9318
:1003A000CDB7DEB7A9E5B0E0E9E5F0E080818B7F6D
:1003B0008C93CF91DF910895DF93CF93CDB7DEB7C4
:1003C000A9E5B0E0E9E5F0E0808180618C93CF9110
:1003D000DF910895DF93CF93CDB7DEB7A9E5B0E005
:1003E000E9E5F0E080818F7E8C93CF91DF910895D5
:1003F000DF93CF93CDB7DEB7A9E5B0E0E9E5F0E054
:10040000808188608C93CF91DF910895DF93CF93A3
:10041000CDB7DEB7A9E5B0E0E9E5F0E08081877F00
:100420008C93CF91DF910895DF93CF9300D0CDB718
:10043000DEB79A83898389819A8190936200809341
:1004400061000F900F90CF91DF910895DF93CF93CC
:1004500000D0CDB7DEB79A83898389819A81909342
:100460006400809363000F900F90CF91DF91089507
:10047000DF93CF9300D0CDB7DEB79A83898389818C
:100480009A8190936600809365000F900F90CF91B2
:10049000DF9108951F920F920FB60F9211242F93A0
:1004A0003F934F935F936F937F938F939F93AF93FC
:1004B000BF93EF93FF93DF93CF93CDB7DEB78091D8
:1004C000610090916200009729F0E0916100F09145
:1004D00062000995CF91DF91FF91EF91BF91AF91AC
:1004E0009F918F917F916F915F914F913F912F914C
:1004F0000F900FBE0F901F9018951F920F920FB67E
:100500000F9211242F933F934F935F936F937F9399
:100510008F939F93AF93BF93EF93FF93DF93CF930B
:10052000CDB7DEB78091630090916400009729F009
:10053000E0916300F09164000995CF91DF91FF9104
:10054000EF91BF91AF919F918F917F916F915F914B
:100550004F913F912F910F900FBE0F901F901895C4
:100560001F920F920FB60F9211242F933F934F9328
:100570005F936F937F938F939F93AF93BF93EF930B
:10058000FF93DF93CF93CDB7DEB780916500909155
:100590006600009729F0E0916500F09166000995EA
:1005A000CF91DF91FF91EF91BF91AF919F918F918B
:1005B0007F916F915F914F913F912F910F900FBE5F
:1005C0000F901F901895DF93CF93CDB7DEB7A3E5BB
:1005D000B0E0E3E5F0E0808180648C93A3E5B0E0D7
:1005E000E3E5F0E08081877F8C93A3E5B0E0E3E56D
:1005F000F0E080818F7E8C93A3E5B0E0E3E5F0E04E
:10060000808180628C93A3E5B0E0E3E5F0E0808137
:100610008E7F8C93A3E5B0E0E3E5F0E0808182601B
:100620008C93A3E5B0E0E3E5F0E080818B7F8C93D1
:10063000CF91DF910895DF93CF9300D0CDB7DEB790
:100640009A8389830F900F90CF91DF910895DF9364
:10065000CF930F92CDB7DEB78983ECE5F0E08981C7
:1006600080830F90CF91DF9108951F920F920FB664
:100670000F9211242F933F934F935F936F937F9328
:100680008F939F93AF93BF93EF93FF93DF93CF939A
:10069000CDB7DEB780916D0090916E00019690937A
:1006A0006E0080936D0080916D0090916E002FE040
:1006B0008334920769F4E2E5F0E080EC80831092E5
:1006C0006E0010926D00E0916900F0916A0009954A
:1006D000CF91DF91FF91EF91BF91AF919F918F915A
:1006E0007F916F915F914F913F912F910F900FBE2E
:1006F0000F901F9018951F920F920FB60F92112412
:100700002F933F934F935F936F937F938F939F9319
:10071000AF93BF93EF93FF93DF93CF93CDB7DEB744
:1007200080916F009091700001969093700080937B
:100730006F0080916F009091700027E280319207E6
:1007400049F4E0916B00F0916C00099510927000F3
:1007500010926F00CF91DF91FF91EF91BF91AF9118
:100760009F918F917F916F915F914F913F912F91C9
:100770000F900FBE0F901F901895DF93CF93CDB7BA
:10078000DEB7A6E2B0E0E6E2F0E0808180688C931C
:10079000A7E2B0E0E7E2F0E0808180648C93A7E21A
:1007A000B0E0E7E2F0E080818F778C93A7E2B0E0E1
:1007B000E7E2F0E080818F7D8C93A6E2B0E0E6E294
:1007C000F0E080818F7D8C93A6E2B0E0E6E2F0E07D
:1007D00080818E7F8C93A6E2B0E0E6E2F0E080813B
:1007E00082608C93A6E2B0E0E6E2F0E08081846073
:1007F0008C93CF91DF910895DF93CF9300D0CDB745
:10080000DEB78983A7E2B0E0E7E2F0E08081807E96
:100810008C93A7E2B0E0E7E2F0E090818981892B38
:100820008C93A6E2B0E0E6E2F0E0808180648C93F5
:10083000E6E2F0E08081A6E2B0E0E6E2F0E080816E
:1008400080618C93E4E2F0E0808191810F900F90C1
:10085000CF91DF910895DF93CF93CDB7DEB72A977D
:100860000FB6F894DEBF0FBECDBF89836A8389813E
:10087000282F30E03A87298789859A85813091052C
:1008800009F46DC029853A852230310509F4C9C0C3
:1008900089859A85009709F0E9C08A81282F30E080
:1008A00038872F838F8198858130910521F12F81A1
:1008B0003885223031052CF48F819885009761F0BE
:1008C00046C02F8138852230310521F18F819885EE
:1008D0008330910571F13BC0A5E5B0E0E5E5F0E0BE
:1008E00080818E7F8C93A5E5B0E0E5E5F0E0808126
:1008F00082608C932CC0A5E5B0E0E5E5F0E0808156
:1009000081608C93A5E5B0E0E5E5F0E08081826050
:100910008C931DC0A5E5B0E0E5E5F0E08081816045
:100920008C93A5E5B0E0E5E5F0E080818D7F8C93C8
:100930000EC0A5E5B0E0E5E5F0E080818E7F8C9308
:10094000A5E5B0E0E5E5F0E080818D7F8C93ABE537
:10095000B0E0EBE5F0E0808180648C9387C08A8111
:10096000282F30E03E832D838D819E81813091053B
:1009700021F12D813E81223031052CF48D819E8123
:10098000009761F046C02D813E812230310521F172
:100990008D819E818330910571F13BC0A5E5B0E06A
:1009A000E5E5F0E080818B7F8C93A5E5B0E0E5E59F
:1009B000F0E0808188608C932CC0A5E5B0E0E5E58F
:1009C000F0E0808184608C93A5E5B0E0E5E5F0E09F
:1009D000808188608C931DC0A5E5B0E0E5E5F0E07E
:1009E000808184608C93A5E5B0E0E5E5F0E080814E
:1009F000877F8C930EC0A5E5B0E0E5E5F0E080814F
:100A00008B7F8C93A5E5B0E0E5E5F0E08081877F02
:100A10008C93ABE5B0E0EBE5F0E0808180688C93EF
:100A200025C08A81282F30E03C832B838B819C81D9
:100A3000009731F02B813C812130310549F00FC006
:100A4000A4E5B0E0E4E5F0E080818F7B8C9307C003
:100A5000A4E5B0E0E4E5F0E0808180648C93ABE550
:100A6000B0E0EBE5F0E0808180628C932A960FB6CF
:100A7000F894DEBF0FBECDBFCF91DF910895DF9315
:100A8000CF9300D00F92CDB7DEB789838981282F0D
:100A900030E03B832A838A819B818130910589F0F4
:100AA0002A813B8122303105A1F08A819B81009708
:100AB000B9F4ABE5B0E0EBE5F0E080818F7B8C939F
:100AC0000FC0ABE5B0E0EBE5F0E080818F778C9371
:100AD00007C0ABE5B0E0EBE5F0E080818F7D8C9363
:100AE0000F900F900F90CF91DF910895DF93CF93E8
:100AF00000D00F92CDB7DEB789837B836A8389816B
:100B0000882F90E0880F991FFC01EF58FF4F8A81D2
:100B10009B81918380830F900F900F90CF91DF91F5
:100B200008951F920F920FB60F9211242F933F93A7
:100B30004F935F936F937F938F939F93AF93BF93E5
:100B4000EF93FF93DF93CF93CDB7DEB78091710022
:100B500090917200009729F0E0917100F09172007D
:100B60000995CF91DF91FF91EF91BF91AF919F9147
:100B70008F917F916F915F914F913F912F910F9046
:100B80000FBE0F901F9018951F920F920FB60F92E5
:100B900011242F933F934F935F936F937F938F9382
:100BA0009F93AF93BF93EF93FF93DF93CF93CDB713
:100BB000DEB78091730090917400009729F0E09166
:100BC0007300F09174000995CF91DF91FF91EF913F
:100BD000BF91AF919F918F917F916F915F914F9155
:100BE0003F912F910F900FBE0F901F9018951F925D
:100BF0000F920FB60F9211242F933F934F935F9351
:100C00006F937F938F939F93AF93BF93EF93FF93D4
:100C1000DF93CF93CDB7DEB78091750090917600CA
:100C2000009729F0E0917500F09176000995CF9139
:100C3000DF91FF91EF91BF91AF919F918F917F9144
:100C40006F915F914F913F912F910F900FBE0F9039
:100C50001F901895DF93CF93CDB7DEB727970FB6C8
:100C6000F894DEBF0FBECDBF89836A834B838B812F
:100C7000813009F06FC08981282F30E03F832E83B7
:100C80008E819F818130910549F12E813F812230F3
:100C900031052CF48E819F81009761F0D2C02E81A6
:100CA0003F812230310571F18E819F818330910522
:100CB000E9F1C7C0AAE3B0E0EAE3F0E08081482FA1
:100CC0008A81282F30E081E090E0022E02C0880F58
:100CD000991F0A94E2F7842B8C93B3C0A7E3B0E08A
:100CE000E7E3F0E08081482F8A81282F30E081E01F
:100CF00090E0022E02C0880F991F0A94E2F7842B1D
:100D00008C939FC0A4E3B0E0E4E3F0E08081482F3F
:100D10008A81282F30E081E090E0022E02C0880F07
:100D2000991F0A94E2F7842B8C938BC0A1E3B0E067
:100D3000E1E3F0E08081482F8A81282F30E081E0D4
:100D400090E0022E02C0880F991F0A94E2F7842BCC
:100D50008C9377C08B81882309F073C08981282FF9
:100D600030E03D832C838C819D818130910559F148
:100D70002C813D81223031052CF48C819D8100979E
:100D800069F05FC02C813D812230310589F18C8171
:100D90009D818330910509F440C053C0AAE3B0E0BF
:100DA000EAE3F0E08081482F8A81282F30E081E05B
:100DB00090E0022E02C0880F991F0A94E2F78095F6
:100DC00084238C933EC0A7E3B0E0E7E3F0E08081AA
:100DD000482F8A81282F30E081E090E0022E02C067
:100DE000880F991F0A94E2F7809584238C9329C079
:100DF000A4E3B0E0E4E3F0E08081482F8A81282F6B
:100E000030E081E090E0022E02C0880F991F0A9422
:100E1000E2F7809584238C9314C0A1E3B0E0E1E372
:100E2000F0E08081482F8A81282F30E081E090E037
:100E3000022E02C0880F991F0A94E2F7809584233E
:100E40008C9327960FB6F894DEBF0FBECDBFCF911F
:100E5000DF910895DF93CF93CDB7DEB727970FB615
:100E6000F894DEBF0FBECDBF89836A834B838B812D
:100E7000813009F06FC08981282F30E03F832E83B5
:100E80008E819F818130910549F12E813F812230F1
:100E900031052CF48E819F81009761F0D2C02E81A4
:100EA0003F812230310571F18E819F818330910520
:100EB000E9F1C7C0ABE3B0E0EBE3F0E08081482F9D
:100EC0008A81282F30E081E090E0022E02C0880F56
:100ED000991F0A94E2F7842B8C93B3C0A8E3B0E087
:100EE000E8E3F0E08081482F8A81282F30E081E01C
:100EF00090E0022E02C0880F991F0A94E2F7842B1B
:100F00008C939FC0A5E3B0E0E5E3F0E08081482F3B
:100F10008A81282F30E081E090E0022E02C0880F05
:100F2000991F0A94E2F7842B8C938BC0A2E3B0E064
:100F3000E2E3F0E08081482F8A81282F30E081E0D1
:100F400090E0022E02C0880F991F0A94E2F7842BCA
:100F50008C9377C08B81882309F073C08981282FF7
:100F600030E03D832C838C819D818130910559F146
:100F70002C813D81223031052CF48C819D8100979C
:100F800069F05FC02C813D812230310589F18C816F
:100F90009D818330910509F440C053C0ABE3B0E0BC
:100FA000EBE3F0E08081482F8A81282F30E081E058
:100FB00090E0022E02C0880F991F0A94E2F78095F4
:100FC00084238C933EC0A8E3B0E0E8E3F0E08081A6
:100FD000482F8A81282F30E081E090E0022E02C065
:100FE000880F991F0A94E2F7809584238C9329C077
:100FF000A5E3B0E0E5E3F0E08081482F8A81282F67
:1010000030E081E090E0022E02C0880F991F0A9420
:10101000E2F7809584238C9314C0A2E3B0E0E2E36E
:10102000F0E08081482F8A81282F30E081E090E035
:10103000022E02C0880F991F0A94E2F7809584233C
:101040008C9327960FB6F894DEBF0FBECDBFCF911D
:10105000DF910895DF93CF9300D000D000D0CDB7BB
:10106000DEB789836A838981282F30E03D832C8312
:101070004C815D814130510549F18C819D818230E7
:10108000910534F42C813D812115310561F057C063
:101090004C815D814230510561F18C819D818330AD
:1010A0009105D1F14CC0E9E3F0E08081282F30E0D8
:1010B0008A81882F90E0A90102C0559547958A95AD
:1010C000E2F7CA01582F51705B833AC0E6E3F0E0C3
:1010D0008081282F30E08A81882F90E0A90102C00A
:1010E000559547958A95E2F7CA01582F51705B8351
:1010F00027C0E3E3F0E08081282F30E08A81882F49
:1011000090E0A90102C0559547958A95E2F7CA017A
:10111000582F51705B8314C0E0E3F0E08081282FEA
:1011200030E08A81882F90E0A90102C0559547954B
:101130008A95E2F7CA01582F51705B8301C002C043
:101140008B818E838E8126960FB6F894DEBF0FBEFC
:10115000CDBFCF91DF910895DF93CF9300D000D022
:10116000CDB7DEB789836A838981282F30E03C833D
:101170002B838B819C818130910549F12B813C81AE
:10118000223031052CF48B819C81009761F05AC08C
:101190002B813C812230310571F18B819C81833020
:1011A0009105E9F14FC0ABE3B0E0EBE3F0E0808103
:1011B000482F8A81282F30E081E090E0022E02C083
:1011C000880F991F0A94E2F784278C933BC0A8E309
:1011D000B0E0E8E3F0E08081482F8A81282F30E0FA
:1011E00081E090E0022E02C0880F991F0A94E2F776
:1011F00084278C9327C0A5E3B0E0E5E3F0E080818D
:10120000482F8A81282F30E081E090E0022E02C032
:10121000880F991F0A94E2F784278C9313C0A2E3E6
:10122000B0E0E2E3F0E08081482F8A81282F30E0AF
:1012300081E090E0022E02C0880F991F0A94E2F725
:1012400084278C930F900F900F900F90CF91DF9188
:101250000895DF93CF9300D000D0CDB7DEB7898358
:101260006A838981282F30E03C832B838B819C818A
:1012700081309105D1F02B813C81223031052CF455
:101280008B819C81009761F01EC02B813C812230B4
:10129000310581F08B819C818330910581F013C0F1
:1012A000EAE3F0E08A8180830EC0E7E3F0E08A8120
:1012B000808309C0E4E3F0E08A81808304C0E1E335
:1012C000F0E08A8180830F900F900F900F90CF9164
:1012D000DF910895DF93CF9300D000D0CDB7DEB774
:1012E00089836A838981282F30E03C832B838B811B
:1012F0009C8181309105D1F02B813C8122303105D8
:101300002CF48B819C81009761F01EC02B813C8165
:101310002230310581F08B819C818330910581F0F1
:1013200013C0EBE3F0E08A8180830EC0E8E3F0E0D5
:101330008A81808309C0E5E3F0E08A81808304C06C
:10134000E2E3F0E08A8180830F900F900F900F907E
:10135000CF91DF910895DF93CF9300D000D00F920B
:10136000CDB7DEB789838981282F30E03C832B837A
:101370008B819C8181309105D1F02B813C81223081
:1013800031052CF48B819C81009761F01FC02B816B
:101390003C812230310581F08B819C818330910525
:1013A00081F014C0E9E3F0E090819A8310C0E6E395
:1013B000F0E020812A830BC0E3E3F0E030813A8340
:1013C00006C0E0E3F0E080818A8301C002C09A8118
:1013D0009D838D810F900F900F900F900F90CF9164
:0813E000DF910895F894FFCF9E
:00000001FF
